S0110000536D617274526F6F6D2E737265636F
S11300000C9430000C944D000C944D000C944D0055
S11300100C944D000C944D000C944D000C944D0028
S11300200C944D000C94F9080C944D000C944D0064
S11300300C944D000C9420090C944D000C944D002C
S11300400C944D000C944D000C944D000C944D00F8
S11300500C944D006364696E6F70737578585B001F
S113006011241FBECFE5D8E0DEBFCDBF12E0A0E66D
S1130070B0E0E2EEFFE102C005900D92A03BB107B3
S1130080D9F725E0A0EBB2E001C01D92AB32B20774
S1130090E1F70E94AF080C94EF0F0C9400009AE172
S11300A0899F90011124932F990F930F990F890F12
S11300B00895809160000895EF92FF920F931F932B
S11300C0CF93DF93C82F7B01142F0E947E030E94DD
S11300D07B03883029F0803119F01092600032C01F
S11300E080ED0E948C030E947B03883129F08032CA
S11300F019F01092600026C08C2F0E948C030E947D
S11301007B03883219F4111106C019C08033D9F366
S11301101092600017C0E7011150012F10E00F5F2B
S11301201F4F0E0D1F1D89910E948C030E947B039B
S1130130883211F0803319F4C017D107A1F781E098
S1130140809360000E948603DF91CF911F910F91ED
S1130150FF90EF900895FF920F931F93CF93DF9337
S1130160D82F8B01C42F0E947E030E947B0388300A
S113017029F0803119F0109260005BC080ED0E947C
S11301808C030E947B03883129F0803219F010928D
S113019060004FC08D2F0E948C030E947B03883225
S11301A029F0803319F01092600043C00E947E034E
S11301B00E947B03883029F0803119F0109260008E
S11301C038C081ED0E948C030E947B03877F8034BA
S11301D039F4D0E021971C161D062CF0F12C18C020
S11301E01092600026C0F12C0E949503F801EF0DD7
S11301F0F11D80830E947B03877F803519F0109264
S1130200600006C0F3948F2D90E08C179D0764F373
S1130210E801CF0DD11D0E949C0388830E947B03BB
S1130220877F803519F01092600003C081E08093CD
S113023060000E948603DF91CF911F910F91FF9080
S11302400895AF92BF92CF92DF92EF92FF920F93F5
S11302501F93CF93DF93CDB7DEB728970FB6F894EB
S1130260DEBF0FBECDBFA32EB42EC52ED62EE72ED5
S1130270F82E822F0E944F000DEB12E0F8018083CC
S11302808A2D0E944F00F80181838B2D0E944F001C
S1130290F80182838C2D0E944F00F80183838D2DF9
S11302A00E944F00F80184838E2D0E944F00F801B4
S11302B0858380E38F0D0E944F00F801868347E019
S11302C0B80180E00E945C0028960FB6F894DEBF67
S11302D00FBECDBFDF91CF911F910F91FF90EF9093
S11302E0DF90CF90BF90AF900895CF93DF93CDB7B9
S11302F0DEB728970FB6F894DEBF0FBECDBF47E038
S11303006DEB72E080E00E94AB00EDEBF2E0208147
S1130310318142814F735381648175818681922F2B
S113032092959F70E92FEE0F9E0F990F291B932F23
S113033092959F70E92FEE0F9E0F990F391B942F02
S113034092959F70E92FEE0F9E0F990F491B952FE1
S113035092959F70E92FEE0F9E0F990F591B962FC0
S113036092959F70E92FEE0F9E0F990F691B972F9F
S113037092959F70E92FEE0F9E0F990F791B982F7E
S113038092959F70E92FEE0F9E0F990F891B90E0B5
S11303908053984F98878F83988528960FB6F89442
S11303A0DEBF0FBECDBFDF91CF9108959B01AC019D
S11303B011B860E072E18AE790E00E946509DA0111
S11303C0C9014097A109B109B695A7959795879555
S11303D080B9089516BE94EA96BF06B607FEFDCF0F
S11303E091B1987F983011F0903181F4880F682B87
S11303F063B984E886BF06B607FEFDCF81B1887F66
S1130400883131F0803431F084E108958AE0089530
S113041080E0089580E0089583B984E886BF06B635
S113042007FEFDCF81B1887F883211F480E0089502
S113043085E10895CF93C62F60E00E94EA018111FF
S113044007C08C2F0E940C02811102C094E996BF50
S1130450CF910895FC019381692B80810E941A0237
S113046008950F931F93CF938C01C62F64600E944D
S11304702A0285E08A95F1F700006C2F6B7FC80192
S11304800E942A0285E88A95F1F70000CF911F9116
S11304900F9108951F93CF93DF93EC01162F0E94C1
S11304A02A02612FCE010E943102DF91CF911F9168
S11304B008950F931F93CF93DF938C01C62FD42FEE
S11304C0607F642B0E944A0280E1C89FB00111241E
S11304D06D2BC8010E944A02DF91CF911F910F91A9
S11304E008950F931F93CF93DF93EB0168816623E5
S11304F049F08C01219641E0C8010E94590269919A
S11305006111F9CFDF91CF911F910F91089540E0D0
S11305100E9459020895CF93DF9300D000D0CDB745
S1130520DEB7198220E42A8324E12B8324E52C837B
S1130530FE01E60FF11D2181642F620F60680E94A5
S113054087020F900F900F900F90DF91CF91089535
S1130550CF93DF93EC0161E00E9487028FE99FE073
S11305600197F1F700C0000040E060E0CE010E9476
S11305708B02DF91CF91089562E00E9487028FE998
S11305809FE00197F1F700C000000895FC01658128
S1130590262F246025836C600E9487020895CF93E0
S11305A0DF93CDB7DEB72E970FB6F894DEBF0FBE3C
S11305B0CDBF888769874A871B862C8784E08D870F
S11305C082E08E87423018F0822F88608C87222345
S11305D029F0413019F48C8584608C872FEF80E7F3
S11305E092E0215080409040E1F700C0000060E0BC
S11305F0CE0108960E942A022FEF80E792E0215054
S113060080409040E1F700C0000060E3CE0108960E
S11306100E942A0287E293E20197F1F700C00000EA
S113062060E3CE0108960E944A0287E293E20197B2
S1130630F1F700C0000060E3CE0108960E944A0270
S11306408BE291E00197F1F700C0000060E2CE0177
S113065008960E944A026C856062CE0108960E9448
S11306608702CE0108960E94C602CE0108960E9417
S1130670A8026E856460CE0108960E948702CE01AE
S113068008960E94BC0287E0FE013896DE011196AE
S113069001900D928A95E1F729813A814B815C8121
S11306A06D817E818F8190E02E960FB6F894DEBF27
S11306B00FBECDBFDF91CF91089588E18AB980B58F
S11306C0866880BD83E389B9579A089590E49BB9FD
S11306D08CB95E9BFECF0895CF93DF93EC018881A4
S11306E0882331F021960E94660389918111FBCF02
S11306F0DF91CF91089581B1887F089584EA86BF00
S113070006B607FEFDCF81B1887F089585ED86BFCB
S113071006B604FCFDCF089583B984E886BF06B607
S113072007FEFDCF81B1887F089584EC86BF06B6AD
S113073007FEFDCF83B1089584E886BF06B607FEA1
S1130740FDCF83B10895D09AD19AD29AD39A0895BD
S1130750BB9A089589B7846089BF85E08EBD8BE715
S113076091EE9DBD8CBD089583B7856683BF8FE7E9
S11307708CBF0895EF92FF920F931F93CF93DF9353
S1130780CDB7DEB764970FB6F894DEBF0FBECDBF0A
S113079060E87AE186E090E00E94D60120E042E041
S11307A060E183E20E94CF022093CC023093CD0219
S11307B04093CE025093CF026093D0027093D10243
S11307C08093D20204EC12E087E3282FF80180839F
S11307D08BE3382F818387E1482F828382E0582F6F
S11307E083838FE1682F84838CE0782F858388EE60
S11307F0868397E097839091CB020E9421014DE07C
S113080060E08CEC92E00E948B026FE670E08CEC6E
S113081092E00E9471024DE061E08CEC92E00E9453
S11308208B0263E770E08CEC92E00E9471020E94FC
S11308307501F80120833183428353836483758374
S1130840868397830E945900813009F047C040E0B5
S113085060E08CEC92E00E948B02F80180811F9290
S11308608F9381811F928F9382811F928F9387E749
S113087090E09F938F937E01FBE0EF0EF11CFF92BB
S1130880EF920E94D109B7018CEC92E00E947102B0
S113089040E061E08CEC92E00E948B02F8018481DC
S11308A01F928F9385811F928F9387818F93868167
S11308B08F9386E890E09F938F938E010F5F1F4F75
S11308C01F930F930E94D109B8018CEC92E00E940F
S11308D071020FB6F894DEBF0FBECDBF64960FB69B
S11308E0F894DEBF0FBECDBFDF91CF911F910F9162
S11308F0FF90EF9008950E945D0385E990E00E94C7
S11309006C0382EA90E00E946C030895AF92BF9258
S1130910CF92DF92EF92FF920F931F93CF93DF93C7
S1130920CDB7DEB7C052D3400FB6F894DEBF0FBECA
S1130930CDBF19828E0107531F4FF80110826E013B
S1130940FFE6CF1AFEEFDF0AF60110827E01F7EA16
S1130950EF1AFDEFFF0AF7011082FF92EF92DF9288
S1130960CF921F930F939E012F5F3F4F59013F93E7
S11309702F9325EC30E03F932F939F938F930E9406
S1130980F3091F930F93BF92AF928BEC90E09F9368
S11309908F938BE993E09F938F930E94D109B601C3
S11309A083E694E00E94C209B70183ED92E00E94BD
S11309B0C2090FB6F894DEBF0FBECDBFC05EDC4FD8
S11309C00FB6F894DEBF0FBECDBFDF91CF911F915C
S11309D00F91FF90EF90DF90CF90BF90AF9008956C
S11309E00F931F93CF93DF93CDB7DEB72C970FB63A
S11309F0F894DEBF0FBECDBF162F072F9E012B5FCD
S1130A003F4F3F932F93225031093F932F9322500E
S1130A1031093F932F9321ED30E03F932F939F9320
S1130A208F930E94F309CE010B969F938F930497A3
S1130A309F938F9302969F938F938AED90E09F9359
S1130A408F930F931F930E94F309E4ECF2E08D81DE
S1130A5080838B8181838981828382E083838F81F8
S1130A608483898585838B859C858053984F978360
S1130A7086830FB6F894DEBF0FBECDBF2C960FB69B
S1130A80F894DEBF0FBECDBFDF91CF911F910F91C0
S1130A9008952FEFAC01249FC001259F900D1124D0
S1130AA064E670E00E9451096CBF0895EF92FF92D2
S1130AB00F931F93CF93DF93CDB7DEB728970FB66D
S1130AC0F894DEBF0FBECDBF8C0188E0E1E6F0E014
S1130AD0DE01119601900D928A95E1F71016110628
S1130AE0CCF520E030E0AE014F5F5F4F7E0189E03E
S1130AF0E80EF11C6130710539F5FE0131969081E3
S1130B0032969BBB9FE7A8E381E09150A0408040D0
S1130B10E1F700C00000EE15FF0589F70FC032971A
S1130B2090819BBB9FE7A8E381E09150A040804067
S1130B30E1F700C000004E175F0789F72F5F3F4FB2
S1130B4002171307B9F606C061157105B9F7FE015E
S1130B503996E5CF28960FB6F894DEBF0FBECDBF09
S1130B60DF91CF911F910F91FF90EF900895CF9354
S1130B70DF9300D000D000D0CDB7DEB726E0E9E6A1
S1130B80F0E0DE01119601900D922A95E1F7181616
S1130B9019060CF051C020E030E06130710539F5E0
S1130BA049814BBB4FE758E3E1E041505040E040FE
S1130BB0E1F700C000004B814BBB4FE758E3E1E095
S1130BC041505040E040E1F700C000004D814BBB74
S1130BD04FE758E3E1E041505040E040E1F700C006
S1130BE000002F5F3F4F82179307B9F625C06115A8
S1130BF07105B9F74D814BBB4FE758E3E1E0415034
S1130C005040E040E1F700C000004B814BBB4FE790
S1130C1058E3E1E041505040E040E1F700C00000FB
S1130C2049814BBB4FE758E3E1E041505040E0407D
S1130C30E1F700C00000D5CF26960FB6F894DEBFCA
S1130C400FBECDBFDF91CF910895EF92FF920F9326
S1130C501F93CF93DF93CDB7DEB764970FB6F894A5
S1130C60DEBF0FBECDBF63ED72E083E694E00E9469
S1130C70F0042091C4023091C5024091C602509103
S1130C80C7026091C8027091C9028091CA02909112
S1130C90CB020E9421010E947501E4ECF2E0208362
S1130CA031834283538364837583868397830E944D
S1130CB05900813009F049C040E060E08CEC92E0DA
S1130CC00E948B0204EC12E0F80180811F928F9342
S1130CD081811F928F9382811F928F9387E790E087
S1130CE09F938F937E01FBE0EF0EF11CFF92EF9236
S1130CF00E94D109B7018CEC92E00E94710240E09D
S1130D0061E08CEC92E00E948B02F80184811F92D6
S1130D108F9385811F928F9387818F9386818F9381
S1130D2086E890E09F938F938E010F5F1F4F1F9370
S1130D300F930E94D109B8018CEC92E00E947102D9
S1130D400FB6F894DEBF0FBECDBF83EE90E00E94D5
S1130D506C0364960FB6F894DEBF0FBECDBFDF916F
S1130D60CF911F910F91FF90EF9008950F931F93D0
S1130D70CF93DF93CDB7DEB72A970FB6F894DEBFD3
S1130D800FBECDBF83E694E00E949B09182F092F64
S1130D900E9449054CE061E08CEC92E00E948B02D9
S1130DA00F931F938BEE90E09F938F938E010F5FB1
S1130DB01F4F1F930F930E94D109B8018CEC92E04E
S1130DC00E94710283EE90E00E946C030F900F90DA
S1130DD00F900F900F900F902A960FB6F894DEBFE5
S1130DE00FBECDBFDF91CF911F910F9108958091D8
S1130DF0B502811124C081EF90E00E946C0361E090
S1130E0070E089E090E00E94560561E070E081E0C6
S1130E1090E00E94B7054DE060E08CEC92E00E9407
S1130E208B026EEF70E08CEC92E00E94710283EE14
S1130E3090E00E946C0381E08093B502089582E003
S1130E4091E00E946C0308958091B502882319F102
S1130E5081E291E00E946C0360E070E081E090E048
S1130E600E94B70560E070E089E090E00E945605BA
S1130E704DE060E08CEC92E00E948B026FE670E043
S1130E808CEC92E00E94710283EE90E00E946C036D
S1130E901092B50208958EE291E00E946C030895C9
S1130EA08EE491E00E946C038BE691E00E946C0357
S1130EB08AE891E00E946C0384EA91E00E946C034A
S1130EC08DEB91E00E946C038AED91E00E946C032B
S1130ED08CEE91E00E946C0382E092E00E946C032D
S1130EE085E192E00E946C030895EF92FF920F93C4
S1130EF01F93CF93DF93CDB7DEB764970FB6F89403
S1130F00DEBF0FBECDBF0E947501E4ECF2E020838A
S1130F1031834283538364837583868397830E94DA
S1130F205900813009F049C040E060E08CEC92E067
S1130F300E948B0204EC12E0F80180811F928F93CF
S1130F4081811F928F9382811F928F9387E790E014
S1130F509F938F937E01FBE0EF0EF11CFF92EF92C3
S1130F600E94D109B7018CEC92E00E94710240E02A
S1130F7061E08CEC92E00E948B02F80184811F9264
S1130F808F9385811F928F9387818F9386818F930F
S1130F9086E890E09F938F938E010F5F1F4F1F93FE
S1130FA00F930E94D109B8018CEC92E00E94710267
S1130FB00FB6F894DEBF0FBECDBF64960FB6F8949B
S1130FC0DEBF0FBECDBFDF91CF911F910F91FF9078
S1130FD0EF9008951092B2028CE292E00E946C03AA
S1130FE082EA90E00E946C031092BC021092BB0251
S1130FF00895CF93DF93CDB7DEB7C85CD1090FB6A0
S1131000F894DEBF0FBECDBF8D3039F48091B102AC
S1131010FE01E80FF11D118208C09091B102FE019A
S1131020E90FF11D818381111DC06EE372E0CE01D1
S113103001960E94B909892B71F481E08093B20270
S11310401092B3021092BC021092BB0283E492E0AD
S11310500E946C0304C08EE592E00E946C0310921F
S1131060B10203C09F5F9093B102C853DF4F0FB624
S1131070F894DEBF0FBECDBFDF91CF910895CF931B
S1131080DF93CDB7DEB7C85CD1090FB6F894DEBFE5
S11310900FBECDBF8D3039F48091B002FE01E80F50
S11310A0F11D118208C09091B002FE01E90FF11DFB
S11310B08183811147C0CE0101960E94860464E7B2
S11310C072E08BE993E00E94B909892B21F481E055
S11310D08093BA0234C06DE772E08BE993E00E941A
S11310E0B909892B21F481E08093B90228C066E80C
S11310F072E08BE993E00E94B909892B21F481E025
S11311008093B8021CC063E972E08BE993E00E940B
S1131110B909892B21F481E08093B70210C061EAF8
S113112072E0CE0101960E94B909892B21F481E075
S11311308093B60204C086EA92E00E946C03109287
S1131140B00203C09F5F9093B002C853DF4F0FB645
S1131150F894DEBF0FBECDBFDF91CF9108950E94FA
S1131160A3030E94A8030E94AA030E94B4030E943E
S1131170BA030E947B0478948091BA02882321F0F8
S11311800E9425061092BA028091B902882321F0A8
S11311900E94B6061092B9028091B802882321F009
S11311A00E94F7061092B8028091B702882321F0BA
S11311B00E9424071092B7028091B602882321F07E
S11311C00E9450071092B6028091B402882321F045
S11311D00E9475071092B4028091B302882361F2D1
S11311E08091B202882341F20E94EA071092B3026E
S11311F0C3CF1F920F920FB60F9211242F938F9388
S11312009F938BE791EE9DBD8CBD84E088BF809158
S1131210BB029091BC0201969093BC028093BB02E6
S113122021E02093B402CC9719F481E08093B302B7
S11312309F918F912F910F900FBE0F901F90189533
S11312401F920F920FB60F9211242F933F934F9337
S11312505F936F937F938F939F93AF93BF93EF931A
S1131260FF938CB18CB91092BC021092BB02909186
S1131270B202992319F00E943F0802C00E94F907A4
S1131280FF91EF91BF91AF919F918F917F916F915A
S11312905F914F913F912F910F900FBE0F901F9030
S11312A0189597FB072E16F4009407D077FD09D004
S11312B00E94870907FC05D03EF4909581959F4FC5
S11312C00895709561957F4F0895A1E21A2EAA1B87
S11312D0BB1BFD010DC0AA1FBB1FEE1FFF1FA217E2
S11312E0B307E407F50720F0A21BB30BE40BF50BDF
S11312F0661F771F881F991F1A9469F76095709568
S1131300809590959B01AC01BD01CF010895AA1B66
S1131310BB1B51E107C0AA1FBB1FA617B70710F0DC
S1131320A61BB70B881F991F5A95A9F7809590950E
S1131330BC01CD010895FC0188279927E8942191E7
S11313402032E9F3293010F02E30C8F32B3241F06B
S11313502D3239F4689404C00E94C909820F911D8A
S1131360219120532A30C0F31EF4909581959F4F0C
S11313700895FB01DC018D91019080190110D9F3CE
S1131380990B0895FB01DC0101900D920020E1F717
S113139008957AE0979F902D879F802D910D1124B9
S11313A00895AEE0B0E0E7EDF9E00C94C60F0D89C6
S11313B01E8986E08C831A8309838FEF9FE79E83BF
S11313C08D83AE01475E5F4F6F89788DCE010196A4
S11313D00E940C0AEF81F885E00FF11F10822E960F
S11313E0E4E00C94E20FAEE0B0E0E9EFF9E00C9435
S11313F0C80F85E08C838B899C899A838983AE018D
S1131400495E5F4F6D897E89CE0101960E94890DE8
S11314102E96E2E00C94E40FABE0B0E0E2E1FAE0F7
S11314200C94B80F6C017B018A01FC0117821682AF
S1131430838181FFCCC1CE0101963C01F6019381E9
S1131440F70193FD859193FF81917F01882309F42E
S1131450BAC1853239F493FD859193FF81917F015F
S1131460853229F4B60190E00E94020FE7CF912C57
S1131470212C312CFFE1F315D8F08B3279F038F4BC
S1131480803279F08332A1F4232D20611DC08D3286
S113149061F0803369F4232D216016C0832D8260AE
S11314A0382EE32DE4603E2E2AC0F32DF8601DC0D3
S11314B037FC2DC020ED280F2A3040F08E32B9F4CD
S11314C036FC81C1232D2064322E19C036FE06C09D
S11314D08AE0989E200D1124922E11C0EAE02E9EDF
S11314E0200D1124222EF32DF0623F2E08C08C36DD
S11314F021F4832D8068382E02C0883641F4F70128
S113150093FD859193FF81917F018111B3CF982F32
S11315109F7D9554933028F40C5F1F4F9FE399836C
S11315200DC0833631F0833771F0833509F059C02B
S113153021C0F801808189830E5F1F4F8824839422
S1131540912C530113C02801F2E04F0E511CF801F5
S1131550A080B18036FE03C0692D70E002C06FEF39
S11315607FEFC5010E94B90E4C018201F32DFF7774
S11315703F2E16C0280122E0420E511CF801A08023
S1131580B18036FE03C0692D70E002C06FEF7FEFBB
S1131590C5010E94AE0E4C01F32DF0683F2E82016E
S11315A033FC1BC0822D90E088169906B0F4B60176
S11315B080E290E00E94020F2A94F4CFF50137FCF8
S11315C0859137FE81915F01B60190E00E94020F80
S11315D021102A9421E0821A91088114910471F750
S11315E0E8C0843611F0893641F5F80137FE07C0AA
S11315F060817181828193810C5F1F4F08C060817B
S11316007181072E000C880B990B0E5F1F4FF32D71
S1131610FF763F2E97FF09C0909580957095619550
S11316207F4F8F4F9F4FF0683F2E2AE030E0A30199
S11316300E94570F882E861845C0853731F4232D14
S11316402F7EB22E2AE030E025C0932D997FB92E4B
S11316508F36C1F018F4883579F0B5C0803719F0A9
S1131660883721F0B0C0E92FE061BE2EB4FE0DC072
S1131670FB2DF460BF2E09C034FE0AC0292F26605A
S1131680B22E06C028E030E005C020E130E002C000
S113169020E132E0F801B7FE07C0608171818281E8
S11316A093810C5F1F4F06C06081718180E090E0E0
S11316B00E5F1F4FA3010E94570F882E8618FB2D23
S11316C0FF773F2E36FE0DC0232D2E7FA22E8914C8
S11316D058F434FE0BC032FC09C0832D8E7EA82E34
S11316E005C0B82CA32C03C0B82C01C0B92CA4FE8F
S11316F00FC0FE01E80DF11D8081803321F49A2D85
S1131700997EA92E09C0A2FE06C0B394B39404C066
S11317108A2D867809F0B394A3FC11C0A0FE06C0FC
S1131720B21488F4280C922C9B180EC0B21460F4E6
S1131730B60180E290E00E94020FB394F7CFB21496
S113174018F42B1802C0982C212CA4FE10C0B6014A
S113175080E390E00E94020FA2FE17C0A1FC03C028
S113176088E790E002C088E590E0B6010CC08A2DBD
S1131770867859F0A1FE02C08BE201C080E2A7FC8A
S11317808DE2B60190E00E94020F891438F4B6018C
S113179080E390E00E94020F9A94F7CF8A94F301B9
S11317A0E80DF11D8081B60190E00E94020F8110C6
S11317B0F5CF222009F442CEB60180E290E00E94E7
S11317C0020F2A94F6CFF6018681978102C08FEF2B
S11317D09FEF2B96E2E10C94D40F20FD09C0FC018D
S11317E023FD05C022FF02C07383628351834083BB
S11317F0089544FD17C046FD17C0AB01BC01DA01D2
S1131800FB01AA0FBB1FEE1FFF1F1094D1F74A0F55
S11318105B1F6E1F7F1FCB01BA01660F771F881FE6
S1131820991F09C033E001C034E0660F771F881F99
S1131830991F3150D1F7620F711D811D911D0895BB
S11318400F931F93CF93DF938C01C8010E94C40EA2
S1131850EC0197FD08C00E949A0E892BB1F7B801DC
S1131860CE010E943E0FCE01DF91CF911F910F91C7
S113187008958F929F92AF92BF92EF92FF920F932F
S11318801F93CF93DF938C01D62F7A01B22E0E943F
S1131890C40E9C0133272B32310531F02D32310532
S11318A061F48B2D8068B82ED15011F480E068C0AB
S11318B0C8010E94C40E97FDF9CFCB2DCD7F2B2DEF
S11318C0207309F58033F9F4AA24AA94AD0E09F41F
S11318D043C0C8010E94C40E97FD3EC09C012F7DE9
S11318E033272835310549F4C264D250A9F1C8011F
S11318F00E94C40E97FF07C02FC0B6FE02C0C2608C
S113190001C0C261DA2D812C912C540120ED280FE5
S1131910283080F0C4FF04C0B8010E943E0F19C0F3
S11319202A3040F0C6FFF8CF2F7D3FEE320F36301D
S113193098F727504C2FC501B4010E94F90B4B01B5
S11319405C01C260D15059F0C8010E94C40E97FFD7
S1131950DDCFC1FD04C0AACF812C912C5401C7FF57
S113196008C0B094A09490948094811C911CA11CF4
S1131970B11C2C2FB501A401C7010E94ED0B81E01D
S1131980DF91CF911F910F91FF90EF90BF90AF9097
S11319909F908F900895A0E2B0E0E1EDFCE00C94FC
S11319A0BB0F5C01962E7A01F9018E010F5F1F4F68
S11319B0680180E2D8011D928A95E9F7D501139652
S11319C08C9080E090E0612C712C30E061E070E05C
S11319D083FC259183FE21918F01522E211103C096
S11319E080E090E092C02E3511F4009751F1432F1E
S11319F050E0481759073CF42D3559F12D3219F4AC
S1131A00772009F103C0772009F46AC0452D469573
S1131A1046954695D601A40FB11D452D47708B01FF
S1131A2002C0000F111F4A95E2F7A8015C91452BF3
S1131A304C93651459F0561410F45394E7CF5A9408
S1131A40E5CF31E004C07724739401C0712C019672
S1131A50BFCF772019F08E8180628E83311103C04D
S1131A608824839417C0F6019E012F5D3F4F808127
S1131A70809581932E173F07D1F7F2CFE114F1043B
S1131A8029F0D7018C93F70131967F019A94812C28
S1131A909920F9F0C5010E94C40E97FD18C0FC01FD
S1131AA0FF2723E0F595E7952A95E1F7EC0DFD1D59
S1131AB0208130E0AC014770552702C03595279549
S1131AC04A95E2F720FDDACFB5010E943E0F81105E
S1131AD087CFE114F10411F0D7011C92C80115C09D
S1131AE0422F469546954695D601A40FB11D422F27
S1131AF047708B0102C0000F111F4A95E2F7A8013D
S1131B005C91452B4C93622EA2CFA096EFE00C94EF
S1131B10D70FA0E0B0E0EFE8FDE00C94BB0F6C0140
S1131B20EB015A01FC0117821682512CF601E38065
S1131B30FE01E3FC8591E3FE8191182FEF018823D8
S1131B4009F4EEC090E00E949A0E892B21F0C601A0
S1131B500E94200CEBCF153241F4FE01E3FC1591F9
S1131B60E3FE1191EF01153281F4C6010E94C40E07
S1131B7097FDD4C0412F50E09C013327241735072B
S1131B80A9F2B6010E943E0FCBC01A3239F4E3FC2D
S1131B901591E3FE1191EF0101E001C000E0F12C89
S1131BA020ED210F2A3080F402606F2D70E080E078
S1131BB090E040E20E94F90BF62EFE01E3FC159141
S1131BC0E3FE1191EF01ECCF01FF03C0F11003C05C
S1131BD0A7C0FF24FA94183619F01C3651F010C02F
S1131BE0FE01E3FC1591E3FE1191EF01183641F477
S1131BF008600460FE01E3FC1591E3FE1191EF011E
S1131C00112309F48DC0612F70E084E590E00E94F7
S1131C10A30E892B09F484C000FD07C0F501808060
S1131C209180C50102965C0102C0812C912C1E3664
S1131C3051F4F6014681578160E070E0202FC40121
S1131C400E94ED0B73CF1336A9F401FD02C0FF24EB
S1131C50F394C6010E94C40E97FD60C081149104E0
S1131C6029F0F4018083C40101964C01FA94F11027
S1131C70F0CF50C01B3559F49E01A4016F2DC6014D
S1131C800E94CB0CEC01892B09F044C03EC0C60174
S1131C900E94200C97FD42C01F3661F128F41436CF
S1131CA039F1193651F128C0133771F0153701F1A4
S1131CB023C08114910429F0F4016082C4010196C7
S1131CC04C01FA94FF2071F0C6010E94C40E3C013D
S1131CD097FD08C00E949A0E892B59F3B601C301DF
S1131CE00E943E0F81149104A9F0F401108212C0E5
S1131CF0006203C0006101C00064202FA4016F2DA5
S1131D00C6010E94390C811105C0F60183818073DC
S1131D1029F406C000FD0ACF539408CF552019F0CA
S1131D20852D90E002C08FEF9FEFCDB7DEB7EFE0D7
S1131D300C94D70F91110C94B50F803219F089507F
S1131D408550C8F70895FC010590061621F000207F
S1131D50D9F7C00108953197CF010895FC0105908A
S1131D60615070400110D8F7809590958E0F9F1F99
S1131D700895FC016150704001900110D8F78095DE
S1131D8090958E0F9F1F0895CF93DF93EC012B81C5
S1131D9020FF33C026FF0AC02F7B2B838E819F81B7
S1131DA001969F838E838A8190E029C022FF0FC011
S1131DB0E881F9818081082E000C990B009719F4B1
S1131DC020622B831AC03196F983E8830EC0EA851A
S1131DD0FB85099597FF09C02B81019611F080E2DC
S1131DE001C080E1822B8B8308C02E813F812F5F4D
S1131DF03F4F3F832E83992702C08FEF9FEFDF91E0
S1131E00CF9108950F931F93CF93DF93FB01238109
S1131E1021FD03C08FEF9FEF2CC022FF16C0468127
S1131E205781248135814217530744F4A081B1813D
S1131E309D012F5F3F4F318320838C93268137810F
S1131E402F5F3F4F3783268314C08B01EC01FB01C6
S1131E500084F185E02D0995892BE1F6D8011696C9
S1131E608D919C911797019617969C938E93169734
S1131E70CE01DF91CF911F910F910895FB01238132
S1131E8020FF12C026FD10C08F3F3FEF930761F083
S1131E9082832F7D20642383268137812150310959
S1131EA037832683992708958FEF9FEF0895FA01CA
S1131EB0AA27283051F1203181F1E8946F936E7F85
S1131EC06E5F7F4F8F4F9F4FAF4FB1E03ED0B4E076
S1131ED03CD0670F781F891F9A1FA11D680F791FB7
S1131EE08A1F911DA11D6A0F711D811D911DA11DC8
S1131EF020D009F468943F912AE0269F11243019D8
S1131F00305D3193DEF6CF010895462F4770405D72
S1131F104193B3E00FD0C9F7F6CF462F4F70405D21
S1131F204A3318F0495D31FD4052419302D0A9F77C
S1131F30EACFB4E0A6959795879577956795BA9576
S1131F40C9F700976105710508959B01AC010A2E3C
S1131F5006945795479537952795BA95C9F7620F13
S1131F60731F841F951FA01D08959927882708951E
S1131F702F923F924F925F926F927F928F929F9295
S1131F80AF92BF92CF92DF92EF92FF920F931F9383
S1131F90CF93DF93CDB7DEB7CA1BDB0B0FB6F89434
S1131FA0DEBF0FBECDBF09942A88398848885F8474
S1131FB06E847D848C849B84AA84B984C884DF80E5
S1131FC0EE80FD800C811B81AA81B981CE0FD11DC9
S1131FD00FB6F894DEBF0FBECDBFED010895F8949F
S1051FE0FFCF2D
S1131FE20104000200080001000400020008004F7E
S1131FF246460035302500253032643A25303264B5
S11320023A2530326400253032642F253032642F71
S1132012253032640048656C6C6F207468657265A3
S113202221000D456E74657220796F75722070619E
S11320327373776F726420746F20636F6E74696E4A
S113204275652E0D002573202573202573202573B5
S11320520025643A25643A25640025642F25642FFB
S11320622564000D446F6E652E0D0025336425250D
S1132072000D4F70656E696E672E2E2E0D004F4E49
S113208220000D546865206375727461696E20695D
S11320927320616C7265616479206F70656E210DC5
S11320A2000D436C6F73696E672E2E2E0D000D5456
S11320B26865206375727461696E20697320616C4E
S11320C2726561647920636C6F7365210D000D2A5A
S11320D22A2A2A2A2A20203C3C2048656C70203E69
S11320E23E20202A2A2A2A2A2A0D000D2020207383
S11320F265742074696D65202858583A59593A5ABA
S11321025A204D2F442F59290D002D3E205365741A
S113211273207468652064657369726564207469E8
S11321226D650D000D202020736574206C616D7047
S113213220283020746F20313030290D002D3E20AC
S1132142536574732074686520726F6F6D206272B8
S1132152696768746E6573730D000D2020206F70BB
S1132162656E206375727461696E0D002D3E204F99
S113217270656E7320746865206375727461696E2C
S11321820D000D202020636C6F73652063757274DB
S113219261696E0D002D3E20436C6F73657320746C
S11321A26865206375727461696E0D000D53657301
S11321B273696F6E2074696D656F757421003132B5
S11321C23334000D57656C636F6D65206261636B18
S11321D22C2049276D207265616479210D000D4917
S11321E26E636F72726563742070617373776F725A
S11321F264210D007365742074696D6500736574E0
S1132202206C616D70006F70656E2063757274610D
S1132212696E00636C6F7365206375727461696EB5
S11322220068656C70000D4572726F72210D0000BA
S9030000FC
